{
  "contractName": "TodoContract",
  "abi": [
    {
      "anonymous": false,
      "inputs": [
        {
          "indexed": false,
          "internalType": "string",
          "name": "task",
          "type": "string"
        },
        {
          "indexed": false,
          "internalType": "uint256",
          "name": "taskNumber",
          "type": "uint256"
        }
      ],
      "name": "TaskCreated",
      "type": "event"
    },
    {
      "anonymous": false,
      "inputs": [
        {
          "indexed": false,
          "internalType": "uint256",
          "name": "taskNumber",
          "type": "uint256"
        }
      ],
      "name": "TaskDeleted",
      "type": "event"
    },
    {
      "anonymous": false,
      "inputs": [
        {
          "indexed": false,
          "internalType": "string",
          "name": "task",
          "type": "string"
        },
        {
          "indexed": false,
          "internalType": "uint256",
          "name": "taskId",
          "type": "uint256"
        },
        {
          "indexed": false,
          "internalType": "bool",
          "name": "isComplete",
          "type": "bool"
        }
      ],
      "name": "TaskIsCompleteToggled",
      "type": "event"
    },
    {
      "anonymous": false,
      "inputs": [
        {
          "indexed": false,
          "internalType": "string",
          "name": "task",
          "type": "string"
        },
        {
          "indexed": false,
          "internalType": "uint256",
          "name": "taskId",
          "type": "uint256"
        }
      ],
      "name": "TaskUpdated",
      "type": "event"
    },
    {
      "inputs": [],
      "name": "taskCount",
      "outputs": [
        {
          "internalType": "uint256",
          "name": "",
          "type": "uint256"
        }
      ],
      "stateMutability": "view",
      "type": "function"
    },
    {
      "inputs": [
        {
          "internalType": "uint256",
          "name": "",
          "type": "uint256"
        }
      ],
      "name": "todos",
      "outputs": [
        {
          "internalType": "uint256",
          "name": "index",
          "type": "uint256"
        },
        {
          "internalType": "string",
          "name": "taskName",
          "type": "string"
        },
        {
          "internalType": "bool",
          "name": "isComplete",
          "type": "bool"
        }
      ],
      "stateMutability": "view",
      "type": "function"
    },
    {
      "inputs": [
        {
          "internalType": "string",
          "name": "_taskName",
          "type": "string"
        }
      ],
      "name": "createTask",
      "outputs": [],
      "stateMutability": "nonpayable",
      "type": "function"
    },
    {
      "inputs": [
        {
          "internalType": "uint256",
          "name": "_taskId",
          "type": "uint256"
        },
        {
          "internalType": "string",
          "name": "_taskName",
          "type": "string"
        }
      ],
      "name": "updateTask",
      "outputs": [],
      "stateMutability": "nonpayable",
      "type": "function"
    },
    {
      "inputs": [
        {
          "internalType": "uint256",
          "name": "_taskId",
          "type": "uint256"
        }
      ],
      "name": "toggleComplete",
      "outputs": [],
      "stateMutability": "nonpayable",
      "type": "function"
    },
    {
      "inputs": [
        {
          "internalType": "uint256",
          "name": "_taskId",
          "type": "uint256"
        }
      ],
      "name": "deleteTask",
      "outputs": [],
      "stateMutability": "nonpayable",
      "type": "function"
    }
  ],
  "bytecode": "0x60806040526000805534801561001457600080fd5b50610c81806100246000396000f3fe608060405234801561001057600080fd5b50600436106100625760003560e01c80630951e5bd14610067578063111002aa14610083578063560f31921461009f57806386533f6c146100bb578063b6cb58a5146100d7578063bc8bc2b4146100f5575b600080fd5b610081600480360381019061007c91906107ad565b610127565b005b61009d60048036038101906100989190610920565b6102cb565b005b6100b960048036038101906100b491906107ad565b6103aa565b005b6100d560048036038101906100d09190610969565b610426565b005b6100df6105bb565b6040516100ec91906109d4565b60405180910390f35b61010f600480360381019061010a91906107ad565b6105c1565b60405161011e93929190610a92565b60405180910390f35b6000600160008381526020019081526020016000206040518060600160405290816000820154815260200160018201805461016190610aff565b80601f016020809104026020016040519081016040528092919081815260200182805461018d90610aff565b80156101da5780601f106101af576101008083540402835291602001916101da565b820191906000526020600020905b8154815290600101906020018083116101bd57829003601f168201915b505050505081526020016002820160009054906101000a900460ff161515151581525050905060405180606001604052808381526020018260200151815260200182604001511515158152506001600084815260200190815260200160002060008201518160000155602082015181600101908051906020019061025f929190610680565b5060408201518160020160006101000a81548160ff0219169083151502179055509050507f21d25b1182ece704b24eedd00ef3879b75f4bd2e9a3137cfde0c6405b28ce78c8160200151838360400151156040516102bf93929190610b31565b60405180910390a15050565b60405180606001604052806000548152602001828152602001600015158152506001600080548152602001908152602001600020600082015181600001556020820151816001019080519060200190610325929190610680565b5060408201518160020160006101000a81548160ff02191690831515021790555090505060008081548092919061035b90610b9e565b91905055507fed1d390c812a65783a09786b88b832ef75bb16882fbc56eeea9bf61a4c1a8ac78160016000546103919190610be7565b60405161039f929190610c1b565b60405180910390a150565b600160008281526020019081526020016000206000808201600090556001820160006103d69190610706565b6002820160006101000a81549060ff021916905550507fd078b251d950cc55c44340be1db732337ef4939a76e1367ee271ad2cb19c46af8160405161041b91906109d4565b60405180910390a150565b6000600160008481526020019081526020016000206040518060600160405290816000820154815260200160018201805461046090610aff565b80601f016020809104026020016040519081016040528092919081815260200182805461048c90610aff565b80156104d95780601f106104ae576101008083540402835291602001916104d9565b820191906000526020600020905b8154815290600101906020018083116104bc57829003601f168201915b505050505081526020016002820160009054906101000a900460ff161515151581525050905060405180606001604052808481526020018381526020018260400151151581525060016000858152602001908152602001600020600082015181600001556020820151816001019080519060200190610559929190610680565b5060408201518160020160006101000a81548160ff0219169083151502179055509050507fa19b2211615873e8fbe860460ba43e467bf8f2d28d98b023144fc0739af842cd82846040516105ae929190610c1b565b60405180910390a1505050565b60005481565b60016020528060005260406000206000915090508060000154908060010180546105ea90610aff565b80601f016020809104026020016040519081016040528092919081815260200182805461061690610aff565b80156106635780601f1061063857610100808354040283529160200191610663565b820191906000526020600020905b81548152906001019060200180831161064657829003601f168201915b5050505050908060020160009054906101000a900460ff16905083565b82805461068c90610aff565b90600052602060002090601f0160209004810192826106ae57600085556106f5565b82601f106106c757805160ff19168380011785556106f5565b828001600101855582156106f5579182015b828111156106f45782518255916020019190600101906106d9565b5b5090506107029190610746565b5090565b50805461071290610aff565b6000825580601f106107245750610743565b601f0160209004906000526020600020908101906107429190610746565b5b50565b5b8082111561075f576000816000905550600101610747565b5090565b6000604051905090565b600080fd5b600080fd5b6000819050919050565b61078a81610777565b811461079557600080fd5b50565b6000813590506107a781610781565b92915050565b6000602082840312156107c3576107c261076d565b5b60006107d184828501610798565b91505092915050565b600080fd5b600080fd5b6000601f19601f8301169050919050565b7f4e487b7100000000000000000000000000000000000000000000000000000000600052604160045260246000fd5b61082d826107e4565b810181811067ffffffffffffffff8211171561084c5761084b6107f5565b5b80604052505050565b600061085f610763565b905061086b8282610824565b919050565b600067ffffffffffffffff82111561088b5761088a6107f5565b5b610894826107e4565b9050602081019050919050565b82818337600083830152505050565b60006108c36108be84610870565b610855565b9050828152602081018484840111156108df576108de6107df565b5b6108ea8482856108a1565b509392505050565b600082601f830112610907576109066107da565b5b81356109178482602086016108b0565b91505092915050565b6000602082840312156109365761093561076d565b5b600082013567ffffffffffffffff81111561095457610953610772565b5b610960848285016108f2565b91505092915050565b600080604083850312156109805761097f61076d565b5b600061098e85828601610798565b925050602083013567ffffffffffffffff8111156109af576109ae610772565b5b6109bb858286016108f2565b9150509250929050565b6109ce81610777565b82525050565b60006020820190506109e960008301846109c5565b92915050565b600081519050919050565b600082825260208201905092915050565b60005b83811015610a29578082015181840152602081019050610a0e565b83811115610a38576000848401525b50505050565b6000610a49826109ef565b610a5381856109fa565b9350610a63818560208601610a0b565b610a6c816107e4565b840191505092915050565b60008115159050919050565b610a8c81610a77565b82525050565b6000606082019050610aa760008301866109c5565b8181036020830152610ab98185610a3e565b9050610ac86040830184610a83565b949350505050565b7f4e487b7100000000000000000000000000000000000000000000000000000000600052602260045260246000fd5b60006002820490506001821680610b1757607f821691505b60208210811415610b2b57610b2a610ad0565b5b50919050565b60006060820190508181036000830152610b4b8186610a3e565b9050610b5a60208301856109c5565b610b676040830184610a83565b949350505050565b7f4e487b7100000000000000000000000000000000000000000000000000000000600052601160045260246000fd5b6000610ba982610777565b91507fffffffffffffffffffffffffffffffffffffffffffffffffffffffffffffffff821415610bdc57610bdb610b6f565b5b600182019050919050565b6000610bf282610777565b9150610bfd83610777565b925082821015610c1057610c0f610b6f565b5b828203905092915050565b60006040820190508181036000830152610c358185610a3e565b9050610c4460208301846109c5565b939250505056fea2646970667358221220dad15f6a1ec319ff12a799c685d91b38da7e05e8a3994ad8db50a8b63e1bfc1e64736f6c63430008090033",
  "immutableReferences": {},
  "source": "// TodoContract.sol\n// SPDX-License-Identifier: GPL-3.0\npragma solidity ^0.8.9;\n\ncontract TodoContract {\n  uint256 public taskCount = 0;\n\n  struct Task {\n    uint256 index;\n    string taskName;\n    bool isComplete;\n  }\n\n  mapping(uint256 => Task) public todos;\n  // todo\n  event TaskCreated(string task, uint256 taskNumber);\n  // todo\n  event TaskUpdated(string task, uint256 taskId);\n  // todo\n  event TaskIsCompleteToggled(string task, uint256 taskId, bool isComplete);\n  // todo\n  event TaskDeleted(uint256 taskNumber);\n\n  function createTask(string memory _taskName) public {\n    todos[taskCount] = Task(taskCount, _taskName, false);\n    taskCount++;\n    emit TaskCreated(_taskName, taskCount - 1);\n  }\n\n  function updateTask(uint256 _taskId, string memory _taskName) public {\n    Task memory currTask = todos[_taskId];\n    todos[_taskId] = Task(_taskId, _taskName, currTask.isComplete);\n    emit TaskUpdated(_taskName, _taskId);\n  }\n\n  function toggleComplete(uint256 _taskId) public {\n    Task memory currTask = todos[_taskId];\n    todos[_taskId] = Task(_taskId, currTask.taskName, !currTask.isComplete);\n\n    emit TaskIsCompleteToggled(\n      currTask.taskName,\n      _taskId,\n      !currTask.isComplete\n    );\n  }\n\n  function deleteTask(uint256 _taskId) public {\n    delete todos[_taskId];\n    emit TaskDeleted(_taskId);\n  }\n}",
  "sourcePath": "/Users/teradayuya/development/Polygon-Mobile-dApp/contracts/TodoContract.sol",
  "compiler": {
    "name": "solc",
    "version": "0.8.9+commit.e5eed63a.Emscripten.clang"
  },
  "schemaVersion": "3.4.10",
  "updatedAt": "2022-10-16T08:11:06.843Z",
  "devdoc": {
    "kind": "dev",
    "methods": {},
    "version": 1
  },
  "userdoc": {
    "kind": "user",
    "methods": {},
    "version": 1
  }
}